{
  "contractName": "PropertyContract",
  "abi": [
    {
      "constant": true,
      "inputs": [
        {
          "internalType": "address",
          "name": "",
          "type": "address"
        }
      ],
      "name": "properties",
      "outputs": [
        {
          "internalType": "uint256",
          "name": "living_area",
          "type": "uint256"
        },
        {
          "internalType": "uint256",
          "name": "bedrooms",
          "type": "uint256"
        },
        {
          "internalType": "uint256",
          "name": "bathrooms",
          "type": "uint256"
        },
        {
          "internalType": "bool",
          "name": "furnishings",
          "type": "bool"
        },
        {
          "internalType": "bool",
          "name": "parking",
          "type": "bool"
        }
      ],
      "payable": false,
      "stateMutability": "view",
      "type": "function"
    },
    {
      "constant": false,
      "inputs": [
        {
          "internalType": "uint256",
          "name": "_living_area",
          "type": "uint256"
        },
        {
          "internalType": "uint256",
          "name": "_bedrooms",
          "type": "uint256"
        },
        {
          "internalType": "uint256",
          "name": "_bathrooms",
          "type": "uint256"
        },
        {
          "internalType": "bool",
          "name": "_furnishings",
          "type": "bool"
        },
        {
          "internalType": "bool",
          "name": "_parking",
          "type": "bool"
        }
      ],
      "name": "setProperty",
      "outputs": [],
      "payable": false,
      "stateMutability": "nonpayable",
      "type": "function"
    },
    {
      "constant": true,
      "inputs": [],
      "name": "getProperty",
      "outputs": [
        {
          "components": [
            {
              "internalType": "uint256",
              "name": "living_area",
              "type": "uint256"
            },
            {
              "internalType": "uint256",
              "name": "bedrooms",
              "type": "uint256"
            },
            {
              "internalType": "uint256",
              "name": "bathrooms",
              "type": "uint256"
            },
            {
              "internalType": "bool",
              "name": "furnishings",
              "type": "bool"
            },
            {
              "internalType": "bool",
              "name": "parking",
              "type": "bool"
            }
          ],
          "internalType": "struct PropertyContract.Property",
          "name": "",
          "type": "tuple"
        }
      ],
      "payable": false,
      "stateMutability": "view",
      "type": "function"
    }
  ],
  "bytecode": "0x608060405234801561001057600080fd5b50610573806100206000396000f3fe608060405234801561001057600080fd5b50600436106100415760003560e01c8063077510701461004657806325ec77d714610064578063e71f820214610098575b600080fd5b61004e6100b4565b60405161005b9190610435565b60405180910390f35b61007e600480360361007991908101906102f1565b61015e565b60405161008f959493929190610450565b60405180910390f35b6100b260048036036100ad919081019061031a565b6101ae565b005b6100bc61027f565b6000803373ffffffffffffffffffffffffffffffffffffffff1673ffffffffffffffffffffffffffffffffffffffff1681526020019081526020016000206040518060a00160405290816000820154815260200160018201548152602001600282015481526020016003820160009054906101000a900460ff161515151581526020016003820160019054906101000a900460ff161515151581525050905090565b60006020528060005260406000206000915090508060000154908060010154908060020154908060030160009054906101000a900460ff16908060030160019054906101000a900460ff16905085565b6040518060a0016040528086815260200185815260200184815260200183151581526020018215158152506000803373ffffffffffffffffffffffffffffffffffffffff1673ffffffffffffffffffffffffffffffffffffffff16815260200190815260200160002060008201518160000155602082015181600101556040820151816002015560608201518160030160006101000a81548160ff02191690831515021790555060808201518160030160016101000a81548160ff0219169083151502179055509050505050505050565b6040518060a001604052806000815260200160008152602001600081526020016000151581526020016000151581525090565b6000813590506102c1816104eb565b92915050565b6000813590506102d681610502565b92915050565b6000813590506102eb81610519565b92915050565b60006020828403121561030357600080fd5b6000610311848285016102b2565b91505092915050565b600080600080600060a0868803121561033257600080fd5b6000610340888289016102dc565b9550506020610351888289016102dc565b9450506040610362888289016102dc565b9350506060610373888289016102c7565b9250506080610384888289016102c7565b9150509295509295909350565b61039a816104b5565b82525050565b6103a9816104b5565b82525050565b60a0820160008201516103c56000850182610417565b5060208201516103d86020850182610417565b5060408201516103eb6040850182610417565b5060608201516103fe6060850182610391565b5060808201516104116080850182610391565b50505050565b610420816104e1565b82525050565b61042f816104e1565b82525050565b600060a08201905061044a60008301846103af565b92915050565b600060a0820190506104656000830188610426565b6104726020830187610426565b61047f6040830186610426565b61048c60608301856103a0565b61049960808301846103a0565b9695505050505050565b60006104ae826104c1565b9050919050565b60008115159050919050565b600073ffffffffffffffffffffffffffffffffffffffff82169050919050565b6000819050919050565b6104f4816104a3565b81146104ff57600080fd5b50565b61050b816104b5565b811461051657600080fd5b50565b610522816104e1565b811461052d57600080fd5b5056fea365627a7a7231582082584e0f14a17bb37cd20ee1d83f90998ea3d5959cdd85919c5f086805f947026c6578706572696d656e74616cf564736f6c63430005110040",
  "source": "// SPDX-License-Identifier: MIT\r\n\r\npragma solidity >=0.4.22 <0.9.0;\r\npragma experimental ABIEncoderV2;\r\ncontract PropertyContract {\r\n    struct Property {\r\n        uint living_area;\r\n        uint bedrooms;\r\n        uint bathrooms;\r\n        bool furnishings;\r\n        bool parking;\r\n    }\r\n\r\n    mapping(address => Property) public properties;\r\n\r\n    function setProperty(\r\n        uint _living_area,\r\n        uint _bedrooms,\r\n        uint _bathrooms,\r\n        bool _furnishings,\r\n        bool _parking\r\n    ) public {\r\n        properties[msg.sender] = Property(\r\n            _living_area,\r\n            _bedrooms,\r\n            _bathrooms,\r\n            _furnishings,\r\n            _parking\r\n        );\r\n    }\r\n\r\n    function getProperty() public view returns (Property memory) {\r\n        return properties[msg.sender];\r\n    }\r\n}\r\n",
  "sourcePath": "C:\\Users\\DIXIT\\Desktop\\blockstorage\\property-project\\contracts\\PropertyContract.sol",
  "compiler": {
    "name": "solc",
    "version": "0.5.17+commit.d19bba13.Emscripten.clang"
  },
  "schemaVersion": "3.4.16",
  "updatedAt": "2024-05-01T11:23:37.635Z",
  "networkType": "ethereum",
  "devdoc": {
    "methods": {}
  },
  "userdoc": {
    "methods": {}
  }
}